{
  "contractName": "Cert",
  "abi": [
    {
      "inputs": [],
      "payable": false,
      "stateMutability": "nonpayable",
      "type": "constructor"
    },
    {
      "constant": true,
      "inputs": [],
      "name": "count",
      "outputs": [
        {
          "internalType": "uint256",
          "name": "",
          "type": "uint256"
        }
      ],
      "payable": false,
      "stateMutability": "view",
      "type": "function"
    },
    {
      "constant": true,
      "inputs": [
        {
          "internalType": "string",
          "name": "",
          "type": "string"
        }
      ],
      "name": "tasks",
      "outputs": [
        {
          "internalType": "uint256",
          "name": "id",
          "type": "uint256"
        },
        {
          "internalType": "string",
          "name": "hashval",
          "type": "string"
        },
        {
          "internalType": "string",
          "name": "name",
          "type": "string"
        },
        {
          "internalType": "string",
          "name": "course",
          "type": "string"
        },
        {
          "internalType": "string",
          "name": "issuer",
          "type": "string"
        },
        {
          "internalType": "string",
          "name": "date",
          "type": "string"
        },
        {
          "internalType": "bool",
          "name": "exists",
          "type": "bool"
        }
      ],
      "payable": false,
      "stateMutability": "view",
      "type": "function"
    },
    {
      "constant": false,
      "inputs": [
        {
          "internalType": "string",
          "name": "_hashval",
          "type": "string"
        },
        {
          "internalType": "string",
          "name": "_name",
          "type": "string"
        },
        {
          "internalType": "string",
          "name": "_course",
          "type": "string"
        },
        {
          "internalType": "string",
          "name": "_issuer",
          "type": "string"
        },
        {
          "internalType": "string",
          "name": "_date",
          "type": "string"
        }
      ],
      "name": "createTask",
      "outputs": [],
      "payable": false,
      "stateMutability": "nonpayable",
      "type": "function"
    }
  ],
  "bytecode": "0x6080604052600080553480156200001557600080fd5b50620000de6040518060400160405280600381526020016231323360e81b8152506040518060400160405280601381526020017f4d69727a61204d6f68616d6d61642042616967000000000000000000000000008152506040518060400160405280600c81526020016b74657374696e67205765623360a01b81525060405180604001604052806005815260200164109594925560da1b8152506040518060400160405280600a815260200169189a969898969918191960b11b815250620000e460201b60201c565b620002e5565b600080546001908101918290556040805160e0810182529283526020808401899052838201889052606084018790526080840186905260a0840185905260c084018390529051885189928291908401908083835b60208310620001595780518252601f19909201916020918201910162000138565b51815160209384036101000a6000190180199092169116179052920194855250604051938490038101909320845181558484015180519194620001a59450600186019350019062000240565b5060408201518051620001c391600284019160209091019062000240565b5060608201518051620001e191600384019160209091019062000240565b5060808201518051620001ff91600484019160209091019062000240565b5060a082015180516200021d91600584019160209091019062000240565b5060c091909101516006909101805460ff19169115159190911790555050505050565b828054600181600116156101000203166002900490600052602060002090601f016020900481019282601f106200028357805160ff1916838001178555620002b3565b82800160010185558215620002b3579182015b82811115620002b357825182559160200191906001019062000296565b50620002c1929150620002c5565b5090565b620002e291905b80821115620002c15760008155600101620002cc565b90565b610b0480620002f56000396000f3fe608060405234801561001057600080fd5b50600436106100415760003560e01c806306661abd1461004657806314c02d841461006057806358709cf21461031a575b600080fd5b61004e6105e0565b60408051918252519081900360200190f35b610318600480360360a081101561007657600080fd5b810190602081018135600160201b81111561009057600080fd5b8201836020820111156100a257600080fd5b803590602001918460018302840111600160201b831117156100c357600080fd5b91908080601f0160208091040260200160405190810160405280939291908181526020018383808284376000920191909152509295949360208101935035915050600160201b81111561011557600080fd5b82018360208201111561012757600080fd5b803590602001918460018302840111600160201b8311171561014857600080fd5b91908080601f0160208091040260200160405190810160405280939291908181526020018383808284376000920191909152509295949360208101935035915050600160201b81111561019a57600080fd5b8201836020820111156101ac57600080fd5b803590602001918460018302840111600160201b831117156101cd57600080fd5b91908080601f0160208091040260200160405190810160405280939291908181526020018383808284376000920191909152509295949360208101935035915050600160201b81111561021f57600080fd5b82018360208201111561023157600080fd5b803590602001918460018302840111600160201b8311171561025257600080fd5b91908080601f0160208091040260200160405190810160405280939291908181526020018383808284376000920191909152509295949360208101935035915050600160201b8111156102a457600080fd5b8201836020820111156102b657600080fd5b803590602001918460018302840111600160201b831117156102d757600080fd5b91908080601f0160208091040260200160405190810160405280939291908181526020018383808284376000920191909152509295506105e6945050505050565b005b6103be6004803603602081101561033057600080fd5b810190602081018135600160201b81111561034a57600080fd5b82018360208201111561035c57600080fd5b803590602001918460018302840111600160201b8311171561037d57600080fd5b91908080601f016020809104026020016040519081016040528093929190818152602001838380828437600092019190915250929550610736945050505050565b6040518088815260200180602001806020018060200180602001806020018715151515815260200186810386528c818151815260200191508051906020019080838360005b8381101561041b578181015183820152602001610403565b50505050905090810190601f1680156104485780820380516001836020036101000a031916815260200191505b5086810385528b5181528b516020918201918d019080838360005b8381101561047b578181015183820152602001610463565b50505050905090810190601f1680156104a85780820380516001836020036101000a031916815260200191505b5086810384528a5181528a516020918201918c019080838360005b838110156104db5781810151838201526020016104c3565b50505050905090810190601f1680156105085780820380516001836020036101000a031916815260200191505b5086810383528951815289516020918201918b019080838360005b8381101561053b578181015183820152602001610523565b50505050905090810190601f1680156105685780820380516001836020036101000a031916815260200191505b5086810382528851815288516020918201918a019080838360005b8381101561059b578181015183820152602001610583565b50505050905090810190601f1680156105c85780820380516001836020036101000a031916815260200191505b509c5050505050505050505050505060405180910390f35b60005481565b600080546001908101918290556040805160e0810182529283526020808401899052838201889052606084018790526080840186905260a0840185905260c084018390529051885189928291908401908083835b602083106106595780518252601f19909201916020918201910161063a565b51815160209384036101000a60001901801990921691161790529201948552506040519384900381019093208451815584840151805191946106a394506001860193500190610a34565b50604082015180516106bf916002840191602090910190610a34565b50606082015180516106db916003840191602090910190610a34565b50608082015180516106f7916004840191602090910190610a34565b5060a08201518051610713916005840191602090910190610a34565b5060c091909101516006909101805460ff19169115159190911790555050505050565b80516020818301810180516001808352938301948301949094209390528254838301805460408051600296831615610100026000190190921695909504601f810185900485028201850190955284815291949391929091908301828280156107df5780601f106107b4576101008083540402835291602001916107df565b820191906000526020600020905b8154815290600101906020018083116107c257829003601f168201915b50505060028085018054604080516020601f60001961010060018716150201909416959095049283018590048502810185019091528181529596959450909250908301828280156108715780601f1061084657610100808354040283529160200191610871565b820191906000526020600020905b81548152906001019060200180831161085457829003601f168201915b5050505060038301805460408051602060026001851615610100026000190190941693909304601f81018490048402820184019092528181529495949350908301828280156109015780601f106108d657610100808354040283529160200191610901565b820191906000526020600020905b8154815290600101906020018083116108e457829003601f168201915b5050505060048301805460408051602060026001851615610100026000190190941693909304601f81018490048402820184019092528181529495949350908301828280156109915780601f1061096657610100808354040283529160200191610991565b820191906000526020600020905b81548152906001019060200180831161097457829003601f168201915b5050505060058301805460408051602060026001851615610100026000190190941693909304601f8101849004840282018401909252818152949594935090830182828015610a215780601f106109f657610100808354040283529160200191610a21565b820191906000526020600020905b815481529060010190602001808311610a0457829003601f168201915b5050506006909301549192505060ff1687565b828054600181600116156101000203166002900490600052602060002090601f016020900481019282601f10610a7557805160ff1916838001178555610aa2565b82800160010185558215610aa2579182015b82811115610aa2578251825591602001919060010190610a87565b50610aae929150610ab2565b5090565b610acc91905b80821115610aae5760008155600101610ab8565b9056fea265627a7a723158205bc3c84fbdc26e9c0bbc69b53d001b6158df791d3e0e342fe38290a6b9e8a95064736f6c63430005100032",
  "source": "pragma solidity =0.5.16;\r\ncontract Cert{\r\n    uint public count=0;\r\n    struct Task{\r\n        uint id;\r\n        string hashval;\r\n        string name;\r\n        string course;\r\n        string issuer;\r\n        string date;\r\n        bool exists;\r\n    }\r\n    mapping(string => Task)public  tasks;\r\n\r\n    constructor() public{\r\n        createTask(\"123\", \"Mirza Mohammad Baig\", \"testing Web3\", \"BVRIT\", \"15-11-2022\");\r\n    }\r\n\r\n    function createTask(string memory _hashval,string memory _name,string memory _course, string memory _issuer, string memory _date) public{\r\n        count ++;\r\n        tasks[_hashval] = Task(count, _hashval,_name, _course, _issuer, _date, true);\r\n    }\r\n}",
  "sourcePath": "C:\\Users\\Mirza mohammed baig\\OneDrive\\Desktop\\DGVB\\contracts\\Cert.sol",
  "compiler": {
    "name": "solc",
    "version": "0.5.16+commit.9c3226ce.Emscripten.clang"
  },
  "schemaVersion": "3.4.10",
  "updatedAt": "2022-11-16T07:39:41.447Z",
  "networkType": "ethereum",
  "devdoc": {
    "methods": {}
  },
  "userdoc": {
    "methods": {}
  }
}