{
  "contractName": "Cert",
  "abi": [
    {
      "inputs": [],
      "payable": false,
      "stateMutability": "nonpayable",
      "type": "constructor"
    },
    {
      "constant": true,
      "inputs": [],
      "name": "count",
      "outputs": [
        {
          "internalType": "uint256",
          "name": "",
          "type": "uint256"
        }
      ],
      "payable": false,
      "stateMutability": "view",
      "type": "function"
    },
    {
      "constant": true,
      "inputs": [
        {
          "internalType": "uint256",
          "name": "",
          "type": "uint256"
        }
      ],
      "name": "tasks",
      "outputs": [
        {
          "internalType": "uint256",
          "name": "id",
          "type": "uint256"
        },
        {
          "internalType": "string",
          "name": "content",
          "type": "string"
        },
        {
          "internalType": "bool",
          "name": "completed",
          "type": "bool"
        }
      ],
      "payable": false,
      "stateMutability": "view",
      "type": "function"
    },
    {
      "constant": false,
      "inputs": [
        {
          "internalType": "string",
          "name": "_content",
          "type": "string"
        }
      ],
      "name": "createTask",
      "outputs": [],
      "payable": false,
      "stateMutability": "nonpayable",
      "type": "function"
    }
  ],
  "bytecode": "0x60806040526000805534801561001457600080fd5b5060408051808201909152600c81526b44656661756c74205461736b60a01b602082015261004a906001600160e01b0361004f16565b610156565b600080546001908101808355604080516060810182528281526020808201878152828401879052938652848152919094208451815591518051929361009c939085019291909101906100bb565b50604091909101516002909101805460ff191691151591909117905550565b828054600181600116156101000203166002900490600052602060002090601f016020900481019282601f106100fc57805160ff1916838001178555610129565b82800160010185558215610129579182015b8281111561012957825182559160200191906001019061010e565b50610135929150610139565b5090565b61015391905b80821115610135576000815560010161013f565b90565b6103a0806101656000396000f3fe608060405234801561001057600080fd5b50600436106100415760003560e01c806306661abd14610046578063111002aa146100605780638d97767214610108575b600080fd5b61004e6101af565b60408051918252519081900360200190f35b6101066004803603602081101561007657600080fd5b81019060208101813564010000000081111561009157600080fd5b8201836020820111156100a357600080fd5b803590602001918460018302840111640100000000831117156100c557600080fd5b91908080601f0160208091040260200160405190810160405280939291908181526020018383808284376000920191909152509295506101b5945050505050565b005b6101256004803603602081101561011e57600080fd5b5035610221565b604051808481526020018060200183151515158152602001828103825284818151815260200191508051906020019080838360005b8381101561017257818101518382015260200161015a565b50505050905090810190601f16801561019f5780820380516001836020036101000a031916815260200191505b5094505050505060405180910390f35b60005481565b6000805460019081018083556040805160608101825282815260208082018781528284018790529386528481529190942084518155915180519293610202939085019291909101906102d0565b50604091909101516002909101805460ff191691151591909117905550565b600160208181526000928352604092839020805481840180548651600296821615610100026000190190911695909504601f810185900485028601850190965285855290949193929091908301828280156102bd5780601f10610292576101008083540402835291602001916102bd565b820191906000526020600020905b8154815290600101906020018083116102a057829003601f168201915b5050506002909301549192505060ff1683565b828054600181600116156101000203166002900490600052602060002090601f016020900481019282601f1061031157805160ff191683800117855561033e565b8280016001018555821561033e579182015b8281111561033e578251825591602001919060010190610323565b5061034a92915061034e565b5090565b61036891905b8082111561034a5760008155600101610354565b9056fea265627a7a7231582050597ddda2c3762455e56075fa70888b642ae1d3c39fb5d76031288526f5aac464736f6c63430005100032",
  "source": "pragma solidity =0.5.16;\r\ncontract Cert{\r\n    uint public count=0;\r\n    struct Task{\r\n        uint id;\r\n        string content;\r\n        bool completed;\r\n    }\r\n    mapping(uint => Task)public  tasks;\r\n\r\n    constructor() public{\r\n        createTask(\"Default Task\");\r\n    }\r\n\r\n    function createTask(string memory _content) public{\r\n        count ++;\r\n        tasks[count] = Task(count, _content, false);\r\n    }\r\n}",
  "sourcePath": "C:\\Users\\Mirza mohammed baig\\OneDrive\\Desktop\\DGVB\\contracts\\Cert.sol",
  "compiler": {
    "name": "solc",
    "version": "0.5.16+commit.9c3226ce.Emscripten.clang"
  },
  "schemaVersion": "3.4.10",
  "updatedAt": "2022-11-15T14:12:39.243Z",
  "networkType": "ethereum",
  "devdoc": {
    "methods": {}
  },
  "userdoc": {
    "methods": {}
  }
}