{
  "contractName": "Cert",
  "abi": [
    {
      "constant": true,
      "inputs": [],
      "name": "count",
      "outputs": [
        {
          "internalType": "uint256",
          "name": "",
          "type": "uint256"
        }
      ],
      "payable": false,
      "stateMutability": "view",
      "type": "function"
    }
  ],
  "bytecode": "0x608060405260008055348015601357600080fd5b506080806100226000396000f3fe6080604052348015600f57600080fd5b506004361060285760003560e01c806306661abd14602d575b600080fd5b60336045565b60408051918252519081900360200190f35b6000548156fea265627a7a723158203757640af01f724d256a388ae97fd7c4fc09fe054de8c8e7649b805db0fa70e164736f6c63430005100032",
  "source": "pragma solidity =0.5.16;\r\ncontract Cert{\r\n    uint public count=0;\r\n}",
  "sourcePath": "C:\\Users\\Mirza mohammed baig\\OneDrive\\Desktop\\DGVB\\contracts\\Cert.sol",
  "compiler": {
    "name": "solc",
    "version": "0.5.16+commit.9c3226ce.Emscripten.clang"
  },
  "schemaVersion": "3.4.10",
  "updatedAt": "2022-11-14T14:27:09.177Z",
  "networkType": "ethereum",
  "devdoc": {
    "methods": {}
  },
  "userdoc": {
    "methods": {}
  }
}